:100000000C9462000C947F000C947F000C947F0091
:100010000C947F000C947F000C947F000C94EF02F2
:100020000C947F000C947F000C947F000C947F0054
:100030000C947F000C947F000C947F000C947F0044
:100040000C9448010C947F000C947F000C947F006A
:100050000C947F000C947F000C947F000C947F0024
:100060000C947F000C947F00000000002400270007
:100070002A0000000000250028002B0000000000DE
:1000800023002600290004040404040404040202DA
:100090000202020203030303030301020408102007
:1000A0004080010204081020010204081020000012
:1000B0000007000201000003040600000000000029
:1000C0000000020011241FBECFEFD8E0DEBFCDBF7D
:1000D00016E0A0E0B1E0EEE3FDE002C005900D9275
:1000E000A034B107D9F716E0A0E4B6E001C01D9234
:1000F000A236B107E1F70E9439010C949D060C94D9
:100100000000AF92BF92CF92DF92EF92FF920F93D7
:100110001F93CF93DF9390E0E92E91E0F92E02E355
:1001200011E0C0E0D0E01DC0F701619171917F0145
:1001300080913C0620E030E040E050E00E944B031C
:10014000F80161917191819191918F0120E030E0EE
:1001500048E454E40E94B6050E9461050E949001A3
:1001600021968091400690914106C817D907E4F284
:1001700086E9E82E81E0F82E04E213E057016801D9
:10018000C0E0D0E021C0F501619171915F018091E3
:100190003C0620E030E040E050E00E944B03F601D6
:1001A00061917191819191916F0120E030E048E47B
:1001B00054E40E94B6050E9461050E94900180915E
:1001C0003C060E94D80221968091420690914306F7
:1001D000C817D907C4F2C0E0D0E021C0F70161918F
:1001E00071917F0180913C0620E030E040E050E0DA
:1001F0000E944B03F80161917191819191918F015E
:1002000020E030E048E454E40E94B6050E94610515
:100210000E94900180913C060E94D8022196809114
:10022000420690914306C817D907C4F268E873E103
:1002300080E090E00E949001DF91CF911F910F919B
:10024000FF90EF90DF90CF90BF90AF900895809196
:100250003C0661E00E94240289E190E0909341060F
:100260008093400687EC90E090934306809342068B
:100270000895CF93DF930E94E9010E942701C0E017
:10028000D0E00E9481002097E1F30E940000F9CFA6
:100290001F920F920FB60F9211242F933F938F93BB
:1002A0009F93AF93BF938091480690914906A09188
:1002B0004A06B0914B0630914C060196A11DB11D26
:1002C000232F2D5F2D3720F02D570196A11DB11D35
:1002D00020934C068093480690934906A0934A06C3
:1002E000B0934B068091440690914506A091460636
:1002F000B09147060196A11DB11D809344069093CD
:100300004506A0934606B0934706BF91AF919F91D3
:100310008F913F912F910F900FBE0F901F901895C6
:100320009B01AC017FB7F8948091440690914506FB
:10033000A0914606B091470666B5A89B05C06F3FE1
:1003400019F00196A11DB11D7FBFBA2FA92F982FBB
:100350008827860F911DA11DB11D62E0880F991F8E
:10036000AA1FBB1F6A95D1F7BC012DC0FFB7F89437
:100370008091440690914506A0914606B0914706AB
:10038000E6B5A89B05C0EF3F19F00196A11DB11D70
:10039000FFBFBA2FA92F982F88278E0F911DA11D5F
:1003A000B11DE2E0880F991FAA1FBB1FEA95D1F784
:1003B000861B970B885E9340C8F221503040404026
:1003C000504068517C4F211531054105510571F6AA
:1003D0000895789484B5826084BD84B5816084BDBD
:1003E00085B5826085BD85B5816085BDEEE6F0E0AE
:1003F000808181608083E1E8F0E01082808182600A
:100400008083808181608083E0E8F0E0808181608A
:100410008083E1EBF0E0808184608083E0EBF0E0BA
:10042000808181608083EAE7F0E08081846080835E
:100430008081826080838081816080838081806808
:1004400080831092C1000895CF93DF93482F50E02E
:10045000CA0186569F4FFC0134914A575F4FFA01FB
:100460008491882369F190E0880F991FFC01E85975
:10047000FF4FA591B491FC01EE58FF4FC591D49167
:10048000662351F42FB7F8948C91932F909589237C
:100490008C93888189230BC0623061F42FB7F89464
:1004A0008C91932F909589238C938881832B8883BB
:1004B0002FBF06C09FB7F8948C91832B8C939FBF5E
:1004C000DF91CF910895482F50E0CA0182559F4F88
:1004D000FC012491CA0186569F4FFC0194914A5712
:1004E0005F4FFA013491332309F440C0222351F1C4
:1004F000233071F0243028F42130A1F0223011F59E
:1005000014C02630B1F02730C1F02430D9F404C033
:10051000809180008F7703C0809180008F7D8093D1
:10052000800010C084B58F7702C084B58F7D84BDF4
:1005300009C08091B0008F7703C08091B0008F7D9B
:100540008093B000E32FF0E0EE0FFF1FEE58FF4F57
:10055000A591B4912FB7F894662321F48C919095CE
:10056000892302C08C91892B8C932FBF08958130F1
:1005700041F0813018F08230D1F409C010926E0041
:10058000089580916F008D7F80936F000895809112
:1005900070008D7F8093700081E08093B000809127
:1005A000B100887F84608093B1001092B3000895F9
:1005B0001F93182F80913E06811711F09FEF06C000
:1005C000E2ECF0E094918FEF80933E06892F0E9439
:1005D000B702812F60E00E9463021F9108951F926D
:1005E0000F920FB60F9211242F933F934F935F9367
:1005F0006F937F938F939F93AF93BF93EF93FF93EB
:1006000080915B0690915C06A0915D06B0915E06BC
:100610000097A105B10551F1E0915F06F0916006E8
:100620008081909161068927808380915B069091FB
:100630005C06A0915D06B0915E06181619061A06B2
:100640001B06C4F480915B0690915C06A0915D0648
:10065000B0915E060197A109B10980935B06909362
:100660005C06A0935D06B0935E0604C080913E06D2
:100670000E94D802FF91EF91BF91AF919F918F910E
:100680007F916F915F914F913F912F910F900FBE8E
:100690000F901F9018952F923F925F926F927F92CA
:1006A0008F929F92AF92BF92CF92DF92EF92FF9282
:1006B0000F931F93DF93CF9300D000D0CDB7DEB759
:1006C000A82F1B0129833A834B835C8380913E06CC
:1006D0008A1721F4E2ECF0E0549082C08F3F09F0D9
:1006E000DAC1A0933E06E2ECF0E054902FEF5216F0
:1006F00009F4D1C181E0581639F192E0591609F494
:1007000049C0552009F06CC014BC15BC84B582608A
:1007100084BD85B5816085BD2A2F30E0F901EA5797
:10072000FF4FE491F0E0EE0FFF1FEE58FF4F859171
:100730009491909352068093510626563F4FF901AB
:100740008491809353064EC01092800010928100D5
:100750008091810088608093810080918100816018
:10076000809381002A2F30E0F901EA57FF4FE4918E
:10077000F0E0EE0FFF1FEE58FF4F8591949190939C
:1007800059068093580626563F4FF901849180936D
:100790005A0628C01092B0001092B1008091B000AB
:1007A00082608093B0008091B10081608093B1003D
:1007B0002A2F30E0F901EA57FF4FE491F0E0EE0F05
:1007C000FF1FEE58FF4F85919491909360068093A0
:1007D0005F0626563F4FF90184918093610602C05F
:1007E00057FC59C18A2F61E00E942402552021F054
:1007F000F2E05F1609F0BEC031018824992460E060
:1008000072E18AE790E0A40193010E9482065901F7
:100810006A01860175010894E108F10801091109CE
:100820002FEFE216F1040105110509F008F499C053
:1008300060E472E48FE090E0A40193010E948206DC
:1008400079018A010894E108F1080109110982E09F
:100850005816C1F49FEFE916F1040105110509F0DE
:1008600008F484C060E970ED83E090E0A401930196
:100870000E94820679018A010894E108F1080109C1
:10088000110983E0AFEFEA16F1040105110509F043
:1008900008F468C068E478EE81E090E0A401930178
:1008A0000E94820679018A010894E108F108010991
:1008B0001109552011F483E01DC0B2E05B1611F060
:1008C00084E018C0EFEFEE16F1040105110509F000
:1008D00008F4DFC064E274EF80E090E0A4019301CB
:1008E0000E94820679018A010894E108F108010951
:1008F000110985E0FFEFEF16F1040105110591F1F3
:1009000088F162E17AE780E090E0A40193010E941F
:10091000820679018A010894E108F10801091109A8
:10092000552011F086E001C084E02FEFE216F104BB
:1009300001051105B9F0B0F0C601B50120E034E0C1
:1009400040E050E00E94820679018A010894E108A3
:10095000F10801091109552011F087E008C085E070
:1009600003C081E0552019F485BD3AC082E0809330
:10097000B10036C05101CC24DD2460E072E18AE789
:1009800090E0A60195010E94820679018A010894EF
:10099000E108F1080109110980E0E81680E0F80695
:1009A00081E0080780E0180710F491E010C068E4C7
:1009B00078EE81E090E0A60195010E94820679011F
:1009C0008A010894E108F1080109110993E0A1E006
:1009D0005A1631F480918100887F982B9093810082
:1009E00089819A81AB81BC810097A105B10529F469
:1009F0008FEF9FEFAFEFBFEF13C0220C331CB1019D
:100A000080E090E029813A814B815C810E9441061F
:100A100028EE33E040E050E00E946006C901DA01B0
:100A2000E1E05E16A1F0F2E05F1619F1552099F5AC
:100A3000E7BC80934D0690934E06A0934F06B0936B
:100A4000500680916E00826080936E0024C0F09208
:100A50008900E09288008093540690935506A093F5
:100A60005606B093570680916F00826080936F00A6
:100A700012C0E092B30080935B0690935C06A09353
:100A80005D06B0935E068091700082608093700076
:100A900002C084E06CCF0F900F900F900F90CF9119
:100AA000DF911F910F91FF90EF90DF90CF90BF905B
:100AB000AF909F908F907F906F905F903F902F901E
:100AC000089533D088F09F5790F0B92F9927B751E8
:100AD000A0F0D1F0660F771F881F991F1AF0BA9502
:100AE000C9F712C0B13081F03AD0B1E0089537C0F3
:100AF000672F782F8827B85F39F0B93FCCF38695F8
:100B000077956795B395D9F73EF490958095709554
:100B100061957F4F8F4F9F4F089557FD9058440F19
:100B2000551F59F05F3F71F04795880F97FB991F4C
:100B300061F09F3F79F08795089512161306140609
:100B4000551FF2CF4695F1DF08C016161706180696
:100B5000991FF1CF86957105610508940895E89471
:100B6000BB2766277727CB0197F908950BD078C06C
:100B700069D028F06ED018F0952309F05AC05FC0F4
:100B80001124EECFCADFA0F3959FD1F3950F50E06B
:100B9000551F629FF001729FBB27F00DB11D639F2F
:100BA000AA27F00DB11DAA1F649F6627B00DA11DD5
:100BB000661F829F2227B00DA11D621F739FB00D7B
:100BC000A11D621F839FA00D611D221F749F3327EB
:100BD000A00D611D231F849F600D211D822F762F84
:100BE0006A2F11249F5750408AF0E1F088234AF081
:100BF000EE0FFF1FBB1F661F771F881F91505040CD
:100C0000A9F79E3F510570F014C0AACF5F3FECF3E7
:100C1000983EDCF3869577956795B795F795E795B8
:100C20009F5FC1F7FE2B880F911D9695879597F9C9
:100C3000089597F99F6780E870E060E008959FEF5E
:100C400080EC089500240A94161617061806090663
:100C5000089500240A941216130614060506089532
:100C6000092E0394000C11F4882352F0BB0F40F4BA
:100C7000BF2B11F460FF04C06F5F7F4F8F4F9F4FFA
:100C80000895629FD001739FF001829FE00DF11DD6
:100C9000649FE00DF11D929FF00D839FF00D749FF6
:100CA000F00D659FF00D9927729FB00DE11DF91FA2
:100CB000639FB00DE11DF91FBD01CF0111240895FF
:100CC000A1E21A2EAA1BBB1BFD010DC0AA1FBB1F50
:100CD000EE1FFF1FA217B307E407F50720F0A21BC2
:100CE000B30BE40BF50B661F771F881F991F1A942F
:100CF00069F760957095809590959B01AC01BD0159
:100D0000CF01089597FB092E05260ED057FD04D07C
:100D1000D7DF0AD0001C38F45095409530952195C6
:100D20003F4F4F4F5F4F0895F6F790958095709520
:0E0D300061957F4F8F4F9F4F0895F894FFCF2E
:100D3E00FFFF950212032A05DE03720312039A04C3
:100D4E00700212031904DE039502E602E602DE03C8
:100D5E0012034A01730189017002B901EF012C02DD
:100D6E00B9010000003F0000803E0000803E000000
:100D7E00003F0000003F0000003F0000003F000069
:100D8E00803F0000003F0000003F0000003F0000D9
:100D9E00003F0000003F0000003F0000803F0000C9
:100DAE00803F000000400000803F0000803F0000B8
:100DBE00003F0000003F0000003F0000003F000029
:100DCE00803F0000803FFFFF70028901B901B90129
:100DDE00FFFFB901EF012C02EF012C022C02700271
:100DEE002C02EF01FFFFFFFFEF014A01B901B9012C
:100DFE00FFFF4A0173018901730189018901B9015C
:100E0E00B901B901FFFFFFFF70028901B901B901F4
:100E1E00FFFFB901EF012C02EF012C022C02700230
:100E2E0070022C02EF01FFFFFFFFFFFFEF01EF014A
:100E3E009502EF01EF01B901FFFF4A01730189012C
:100E4E00730189018901B901B901B901FFFFFFFFE2
:100E5E008901B901EF01700270027002FFFF70028A
:100E6E00700295022C02700270022C02EF01FFFF3D
:100E7E009502E6021203E60212031203EF01B90114
:100E8E00B901950295029502FFFF95029502950212
:100E9E00950295027002700270029502B901E60287
:100EAE0089012601890170022C02EF012C022C020D
:100EBE00700295027002700289011203E602950219
:100ECE009502700295022C02EF012C022C024A01AF
:100EDE00730189012C02700270027002EF01EF01A2
:100EEE00B901B901FFFF2601890170022C02EF0141
:100EFE002C022C02950270027002FFFF700270022B
:100F0E00700295029502E602E602E6021203120351
:100F1E0012031203FFFF1203E6021203E60295020A
:100F2E0095029502950295029502FFFF9502EF013B
:100F3E00B901890170027002FFFFEF012C02EF016F
:100F4E004A014A017301EF01B901890173014A0196
:100F5E00EF01B9010000803F0000003F0000803E1D
:100F6E000000803E0000803F0000003F0000803EF9
:100F7E000000803E0000003F0000803E0000803EEA
:100F8E000000803E0000003F0000803E0000803FD9
:100F9E000000803F0000803F0000003F0000803EC8
:100FAE000000803E0000803F0000003F0000803EB9
:100FBE000000803E0000003F0000803E0000803EAA
:100FCE000000803E0000003F0000803E0000803F99
:100FDE000000803F0000803F0000003F0000803E88
:100FEE000000803E0000803F0000003F0000803E79
:100FFE000000803E0000003F0000803E0000803E6A
:10100E000000803E0000003F0000003E0000003E59
:10101E000000803F0000803F0000003F0000803E47
:10102E000000803E0000803E0000003F0000803E39
:10103E000000803E0000403F0000003F0000803E68
:10104E000000803E0000003F0000803E0000803E19
:10105E000000803E0000003F0000803E0000803F08
:10106E000000803F0000803F0000003F0000003F76
:10107E000000003F0000803E0000803E0000003F68
:10108E000000803E0000803E0000003F0000003F58
:10109E000000803E0000003F0000003E0000003EC9
:1010AE000000803F0000003F0000803E0000803EB8
:1010BE000000003F0000803E0000803E0000003F28
:1010CE000000803E0000803E0000003F0000803E99
:1010DE000000803E0000003F0000803E0000803E89
:1010EE000000003F0000803E0000803E0000003FF8
:1010FE000000803E0000803E000000400000003FE7
:10110E000000003F0000803F0000003F0000003F55
:10111E000000003F0000003F0000003F0000803E46
:10112E000000803E0000803E0000803E0000803EB9
:10113E000000803E0000803F0000003F0000003FA6
:10114E000000003F0000803E0000803F0000003F96
:10115E000000003F0000003F0000803E0000803E87
:10116E000000803E0000003F0000003F0000003FF6
:10117E000000003F0000003F0000003F0000803EE6
:10118E000000803E0000803E0000403F0000803F97
:10119E000000003F0000003F0000003F0000003F45
:1011AE000000003F0000803E0000803E0000803EB8
:1011BE000000003F0000803E0000C03F0000803E67
:1011CE000000803E0000003F0000803E0000803E98
:1011DE000000803E0000003F0000803E0000003F07
:1011EE000000803E0000803E0000803F0000003F77
:1011FE000000803E0000803E0000003F0000803E68
:10120E000000803E0000003F0000803E0000803E57
:10121E000000803F0000803F0000803F0000003F44
:10122E000000003F0000003F0000803E0000803EB6
:10123E000000C03F0000803E0000803E0000003FE6
:10124E000000003F0000003F0000003F0000803F14
:10125E000000003F0000003F000000400000803F03
:10126E000000803F00000040000000400800FF002A
:00000001FF
